:100000000C942A000C9434000C9434000C943400AA
:100010000C9434000C9434000C9434000C94340090
:100020000C9434000C9434000C9434000C94340080
:100030000C9434000C9434000C9434000C94340070
:100040000C9434000C9434000C9434000C94340060
:100050000C94340011241FBECFE5D8E0DEBFCDBF25
:100060000E94CB000C940E010C940000A79A80E033
:1000700090E0E8ECF0E03197F1F700C00000AF9AB3
:10008000E8ECF0E03197F1F700C00000AF9801967E
:10009000873C910571F70895A79A80E090E02FEED4
:1000A0002A95F1F7AF9A2FEE2A95F1F7AF980196BE
:1000B0008F3D9105A1F70895A79A80E090E024ED87
:1000C0002A95F1F700C0AF9A24ED2A95F1F700C008
:1000D000AF9801968A3F910591F70895A79A80E01D
:1000E00090E029EC2A95F1F70000AF9A29EC2A95C7
:1000F000F1F70000AF980196893021E0920789F767
:100100000895A79A80E090E023EB2A95F1F700008C
:10011000AF9A23EB2A95F1F70000AF980196893248
:1001200021E0920789F70895A79A80E090E02FE9EF
:100130002A95F1F700C0AF9A2FE92A95F1F700C090
:10014000AF9801968E3421E0920789F70895A79A17
:1001500080E090E02EE82A95F1F70000AF9A2EE8B3
:100160002A95F1F70000AF980196873721E09207B2
:1001700089F70895A79A80E090E026E82A95F1F79C
:10018000AF9A26E82A95F1F7AF9801968E3821E0CC
:10019000920799F708951ABAC9B3C0FD06C060E086
:1001A00070E08CE594E40E943600C1FD06C060E07A
:1001B00070E088EC92E40E944C00C2FD06C060E052
:1001C00070E088EC92E40E945C00C3FD06C060E031
:1001D00070E088EC92E40E946E00C4FD06C060E00E
:1001E00070E088EC92E40E948100C5FD06C060E0EA
:1001F00070E088EC92E40E949400C6FD06C060E0C6
:1002000070E088EC92E40E94A700CC232CF260E01E
:1002100070E088EC92E40E94BA00BECFF894FFCF61
:00000001FF
